S01900007332635F73656E736F725F6D6F64756C652E7372656325
S1130000582A0020810F00007D0F00007D0F0000A2
S113001000000000000000000000000000000000DC
S11300200000000000000000000000007D0F000040
S113003000000000000000007D0F00007D0F0000A4
S11300407D0F00007D0F00007D0F00007D0F00007C
S11300507D0F00007D0F00007D0F00007D0F00006C
S11300607D0F00000908000019080000290800009D
S11300703908000000000000000000007D0F0000AF
S11300807D0F00007D0F00007D0F00007D0F00003C
S11300907D0F00007D0F00007D0F00007D0F00002C
S11300A07D0F000041070000510700007D0F000094
S11300B07D0F00007D0F00007D0F000010B5064C81
S11300C02378002B07D1054B002B02D0044800E015
S11300D000BF0123237010BD1800002000000000A1
S11300E088150000084B10B5002B03D007490848B9
S11300F000E000BF07480368002B00D110BD064B89
S1130100002BFBD09847F9E7000000001C000020FA
S1130110881500008815000000000000064B984276
S113012008D0064A0023904201D0180070470133DA
S1130130DBB2FAE70023FBE7004400420048004238
S113014010B500230022037043708370C370002134
S113015003830362C36101240471C0246401C48065
S1130160017242728272C27202732A24025542736D
S11301708273C27303610275063C0255C38403850E
S1130180417510BDF0B5DE4657464E464546E0B5CE
S11301909FB005000E0017000800984B9847040014
S11301A001902E60964AD3698000964941580B43CA
S11301B0D36133780520DB0706D51FB03CBC9046DD
S11301C09946A246AB46F0BD2A68138C9BB2002B1D
S11301D0FBD133781C209B07EFD47B782B71002B49
S11301E004D1894AD36904210B43D3610023AB6052
S11301F0EB602B61AB76EB762B832B77A300834AE2
S11302009D502A23FB5C002B05D13B7B002B02D1A4
S113021001336B7701E000236B772B689A463B78B8
S113022004AA13707A4B1E5D11003000794B984775
S11302303000794B98473B79984606AE774B9C46FD
S11302403200190049C949C249C949C249C949C208
S113025049C949C212A9634630330A0043CB43C299
S113026043CB43C243CB43C243CB43C2019B002B8A
S113027004D012A9012B02D0002100E006A9A3009A
S1130280674A9B589B46984522D9FB88984606AEF8
S1130290624B9C463200190049C949C249C949C246
S11302A049C949C249C949C212A9634630330A003F
S11302B043CB43C243CB43C243CB43C243CB43C2EE
S11302C0019A002A12D012AB012A10D000230EE0AA
S11302D043469800405805A900234B70CB708B709F
S11302E001330B70C0B24F4B9847CEE706ABD845ED
S11302F00AD90021002601239946484B98460394C5
S11303005B460293AB4620E042469000C05805A9E4
S113031000234B70CB708B7001330B70C0B2414B18
S11303209847E6E706AB8900C85805A900234B7037
S1130330CB708B704B460B70C0B23A4B984701366A
S1130340F6B23100029B9E4223D84B46B3403A6931
S11303501A42F4D006A80300424631CA31C331CA56
S113036031C331CA31C331CA31C312A84346303311
S1130370020031CB31C231CB31C231CB31C231CBAE
S113038031C2019A002ACDD012AB012ACBD000236E
S1130390C9E75D46039C7B7B9B01BA7BD201134377
S11303A0DBB2524613703B7DDB017A781343DBB238
S11303B052469370FB78342B00D94FE19B001A4AC4
S11303C0D3589F4604221026022132E0797A3A7AE1
S11303D010262EE00622102601212AE008221026EB
S11303E0002126E000223026002122E000222026DF
S11303F000211EE00022002600211AE01D01000059
S1130400000800403815000000180040E0090020F2
S113041060150000210E0000B10D0000D81400008A
S113042058150000ED0E00000414000002221026EE
S11304300121090170230B401343524613732A68A8
S1130440138C9BB2002BFBD17B7D17203F2B00D953
S1130450B3E6FA7BD2011343DBB2524653732A68E4
S1130460138C9BB2002BFBD1BB78524653702423D0
S1130470FB5CDB003A7B92001A43FB7A1343BA7AA3
S1130480520013433343524653812A68138C9BB260
S1130490002BFBD13B8B002B20D0102E00D1BFE0D2
S11304A000D87FE0202E00D19CE0302E16D1FA7ABD
S11304B0002A0AD0FA6980321720FF2A00D97CE684
S11304C03A6A8032FF2A00D977E61720FA69FF2AB0
S11304D000DD72E63A6AFF2A00DD6EE65246528972
S11304E01343524653812A68138C9BB2002BFBD1D1
S11304F0BB8B5246D3812A68138C9BB2002BFBD151
S11305003B8C524613822A68138C9BB2002BFBD17E
S11305103B79FA881343524613812A68138C9BB2A1
S1130520002BFBD12A33FB5C5246D3700723137193
S11305301D33FB5C002B1DD0FB8C494A17209342D2
S113054000D93AE6524653822A68138C9BB2002B98
S1130550FBD13A8D80231B01D31841499BB217204C
S11305608B4200D929E653469A822A68138C9BB29F
S1130570002BFBD1A2003B4BD3583B49095D1B68C0
S1130580CB401B02E021C9000B403849525838497E
S1130590095D1268CA4007210A40134352469385F5
S11305A000200AE6002E99D1FA7A002A0FD0FA69BF
S11305B0802109018C466244294917208A4200D9C6
S11305C0FBE53A6A624426498A4200D9F5E5244AA1
S11305D01720F969914200DDEFE5396A914200DDA7
S11305E0EBE57BE7FA7A002A0FD0FA6980218900CB
S11305F08C4662441F4917208A4200D9DDE53A6AD5
S113060062441C498A4200D9D7E51A4A1720F9697D
S1130610914200DDD1E5396A914200DDCDE55DE727
S1130620FA7A002A0FD0FA69802109028C466244C2
S1130630114917208A4200D9BFE53A6A62440E493B
S11306408A4200D9B9E50C4A1720F969914200DDC4
S1130650B3E5396A914200DDAFE53FE71720ACE529
S1130660FF0F00004C150000541500004015000059
S113067048150000FF030000FFFF000070B5800074
S11306802E4BC45823689A795D791540EA072AD518
S113069001229A716269931C636123689B8C9BB2EB
S11306A01380238B013B9BB22383002B15D0637FE4
S11306B0002B18D02268D3795BB2002B13DB138C88
S11306C09BB2002BFBD1137E02210B4313762268CD
S11306D0138C9BB2002BFBD105E00123226813711C
S11306E0237F052B16D06B0708D50423226893714A
S11306F0E37E9B0702D5A37E9B0717D4AB0708D5DF
S1130700022322689371E37E5B0702D5A37E5B0715
S113071010D470BD00232377E37EDB07E3D5A37EEB
S1130720DB07E0D52000A3689847DCE72000E368F6
S11307309847E3E7236920009847EAE7E0090020A7
S113074010B50020014B984710BDC0467D0600003F
S113075010B50120014B984710BDC0467D0600002E
S1130760931C9B001950012393401A00837E13436A
S11307708376704710B5038B9BB20524002B01D000
S1130780200010BD037F052BFAD0052303770283D5
S11307904161043B02685371437F0024002BEFD076
S11307A00268138C9BB2002BFBD1137E02210B43F6
S11307B013760268138C9BB2002BFBD10024DFE775
S11307C000B583B001AB80221A700A785A704A7857
S11307D09A708A78DA701900014B984703B000BD0B
S11307E0ED0E000010B582B001AB80241C701478AB
S11307F05C7054789C709278DA701A00014B9847B8
S113080002B010BD190F000010B5024B1B68002088
S1130810984710BD3400002010B5024B5B680120DE
S1130820984710BD3400002010B5024B9B6802208D
S1130830984710BD3400002010B5024BDB6803203C
S1130840984710BD3400002003680A4A934203D03D
S1130850094A934207D07047084A116980235B0014
S11308600B431361F7E7054A116980239B000B438F
S11308701361F0E7001C0042002000420008004021
S113088070B50C0015000160A54B9847A54B0022DC
S11308901A702A781A70A44B9C4200D1C6E0A34B6C
S11308A09C4200D1FFE0A36902221343A361002309
S11308B0BC22A3500C32A3509D4BE3619D4BE360DB
S11308C0AB7B002B04D0E26880231B041343E3605A
S11308D06B78002B03D0A36840221343A3606269A2
S11308E0AB7813436361EB78002B04D0A2698023B7
S11308F0DB011343A3612B79002B04D0A26980236D
S11309009B011343A3616B79002B04D0A26980235C
S11309105B011343A361AB79002B03D1A36940228C
S11309201343A361EB79002B03D0A3691022134373
S1130930A3612B7A002B03D0A36908221343A3617C
S11309406B7A1B04F0221203134001221343236227
S11309502B7B6A7B13436A8912041343A362EB7BE8
S11309601B02FE22D2011340297C7F220A4013433A
S1130970A3646A7C120130231340A97C89000C22F1
S11309800A4013438022A350EB7C002B03D0A358CE
S113099002210B43A3502B7D002B04D08022A358AB
S11309A001210B43A3509023AA69E2502B7F002B13
S11309B005D0A022A15880231B060B43A350A022DC
S11309C0A1586B7F1B06FE20C00503400B43A350B8
S11309D0AB7F002B05D01032A15880231B060B439C
S11309E0A350B022A158EB7F1B06FE20C005034094
S11309F00B43A3502023EB5C002B05D01032A158ED
S1130A008023DB050B43A350F022A1582123EB5C88
S1130A101B06FC20800503400B43A3500323E3651E
S1130A20043B103AA3500432A35070BD3D491A2030
S1130A30414B98471A20414B98473B4B9A690221F6
S1130A400A439A613E4A1204120C802189030A4324
S1130A5084215A503B4A1204120C802149030A4350
S1130A6088201A50384A1204120C0A4318301A50BB
S1130A70364A1204120C1143B0229950344A12041B
S1130A80120CAC215A50334A1204120C32490A4354
S1130A90C0215A50314A1204120C802109030A431E
S1130AA0F0215A5003E71F491B20234B98471B2072
S1130AB0224B98471D4B9A6902210A439A61284A9E
S1130AC01204120C802189030A4384215A50254AB6
S1130AD01204120C802149030A4388201A50224A26
S1130AE01204120C0A4318301A50204A1204120C31
S1130AF01143B02299501E4A1204120CAC215A50D0
S1130B001C4A1204120C14490A43C0215A501A4AAE
S1130B101204120C802109030A43F0215A50C6E63C
S1130B2049080000E8090020001C0042002000429F
S1130B30030A0506330A0500210E0000B10D00006A
S1130B40C403002044010020C4010020C40200208A
S1130B50440000204404002000000404C4040020D5
S1130B608408002004060020840600208407002056
S1130B700405002004090020840900200268936908
S1130B8001218B439361016801228B691A42FCD1D4
S1130B907047000070B582B001AC0025A570012635
S1130BA02670657021001C20054B984725706670DF
S1130BB0220004498220C005034B984702B070BD4F
S1130BC0C107000003004008E50700000C4B1B6848
S1130BD0002B06D1EFF31083002B07D00022094B22
S1130BE01A70074A136801331360704772B6BFF373
S1130BF05F8F0022044B1A700132024B1A70F0E727
S1130C00C4090020C809002000000020084B1A680D
S1130C10013A1A601B68002B09D1064B1B78002B84
S1130C2005D00122044B1A70BFF35F8F62B6704780
S1130C30C4090020C80900200000002000B585B0C8
S1130C400322104B9A60104A53681E218B43536051
S1130C500E4A137D62310B4313750D4B98470123E4
S1130C600C4A137101A94B6000234B7006220A70D1
S1130C700B724B720020084B98470020074B984793
S1130C8005B000BD001800400040004100100040C5
S1130C90A10C000000080040C50C0000710D00000C
S1130CA0064A536980210B4353610122044B1A7095
S1130CB019000B781342FCD17047C046000800406D
S1130CC0001C004070B504000D784B78002B02D056
S1130CD08023DB001D434B7A002B02D080231B01B1
S1130CE01D43486801280FD9431E184231D10228F8
S1130CF02DD90223002201325B009842FBD88023C5
S1130D005B011D43120415430B7A002B02D0802390
S1130D109B011D430426A6401149124A4B68134007
S1130D201E42FBD1104B9847A4000D4B9C466444D3
S1130D30226A80235B001A402A4322626146094AE0
S1130D404B6813401E42FBD1084B984770BD0022EC
S1130D50D5E7000480239B0018430543D4E7C0462D
S1130D60001C0040FC070000CD0B00000D0C00002F
S1130D7010B504000422824009480A4943680B4024
S1130D801A42FBD1084B9847A400054B9C46644487
S1130D90226A80235B0013432362044B984710BDEF
S1130DA0001C0040FC070000CD0B00000D0C0000EF
S1130DB010B50400094B9847A000094B9C466044B9
S1130DC08022835840210B4383504031403A43589A
S1130DD01A42FCD0034B984710BDC046CD0B00000F
S1130DE0001C00400D0C000010B50400094B98478E
S1130DF0A000094B9C4660448022835840218B43C9
S1130E0083504031403A43581A42FCD1034B98472F
S1130E1010BDC046CD0B0000001C00400D0C0000AE
S1130E2070B504000D00054B98472A780F23134032
S1130E302034A400024AA35070BDC046E90D00004E
S1130E40001C004030B5D378002B35D11378802BAB
S1130E5029D01B0680246402234354780225AC4322
S1130E6006D19478002C20D18024A402234341602D
S1130E705478013C012C1CD90D042D0CA024E4054C
S1130E802C431C4384620D0CD02424062C431C43A5
S1130E908462D478002C22D15B031CD59378012B77
S1130EA01ED0416117E00023D7E7C024E4022343A6
S1130EB0DDE70D4C2340DFE741600C04240CA02344
S1130EC0DB05234383620C0CD0231B06234383627C
S1130ED0D378002B03D15378013B012B02D930BDC9
S1130EE08161F8E78160FAE7FFFFFBFF10B50A00B4
S1130EF0C1090023002905D14309DB018221C90569
S1130F008C4663441F242040012181401800014B7A
S1130F10984710BD450E0000F0B583B000900E0058
S1130F20019200240127084D02E00134202C09D04D
S1130F303300E3401F42F8D0019A3900A1400098E1
S1130F40A847F2E703B0F0BD450E0000704700006B
S1130F5010B5054B9847054B9847054B9847054BEB
S1130F609847054B984710BD3D0C0000950B0000B9
S1130F704D0F00004D0F00004D0F0000FEE7000074
S1130F8010B5174A174B9A4211D01A00164B9A42C1
S1130F900DD2164A03339B1A9B0801339B0000228F
S1130FA010480F498C58845004329A42FAD1104A9E
S1130FB0104B9A420AD2D3430E495B1803218B4348
S1130FC004339B18002102C29342FCD10A4AFF2138
S1130FD00A4B8B4393600A4B98470A4B9847FEE7AA
S1130FE088150000000000201800002004000020E4
S1130FF018000020540A002000ED00E0000000006A
S1131000BD130000D112000010B51A4B1978480026
S1131010194A138854881B1994881B19D2889B1861
S11310209BB29B08154A8352154B5B78013B99424E
S113103003DB0122134B1A7010BD0131C9B20D4BF1
S113104019708900104B595C104B1A68138C9BB2B1
S1131050002BFBD113891F2083430B431381138C73
S11310609BB2002BFBD1042203490848084B984744
S1131070E2E7C046C9090020D4090020CC090020B9
S1131080F0090020DC09002004000020340A0020BC
S1131090750700000A4B1B78FF2B02D0084B187809
S11310A070478223DB051A6A03231A405100013377
S11310B00B4001210A401343014A1370EEE7C04676
S11310C01600002030B58DB001AC20001B4B9847B2
S11310D00223A3700333637023711B33E370184D31
S11310E0220018492800184B98472C68238C9BB27F
S11310F0002BFBD12000154B9847154B1B5C1F227E
S11311001A4001239340134A136007232371A371E8
S11311102378022213432370094B1A68138C9BB261
S1131120002BFBD1064C00220B4920000B4B9847A7
S1131130E37E01221343E3760DB030BD410100008C
S1131140340A002000440042850100001D01000013
S11311506415000000E100E00910000061070000D0
S1131160F0B5C64600B58AB009AE002474700125F6
S1131170B570F47006239846337031001820204F60
S1131180B8474346337031001920B84708236A46EC
S1131190137054709470D570157155719571D47124
S11311A01472547201235B42538114735473947305
S11311B0D4731474022353749374D5741575114B3A
S11311C00693157754779577D4772023D454013335
S11311D0D4540D4C0D4920000D4B984720000D4B65
S11311E09847802212020C4B1A602268516DC0236A
S11311F05B050B4353650AB004BC9046F0BDC04682
S1131200ED0E0000FFFFFF1FEC090020001C004250
S1131210810800007D0B000000E100E010B50E4BDA
S11312201B78002B00D010BD0C4B19780C4B1A689E
S1131230138C9BB2002BFBD113891F2083430B43D8
S11312401381138C9BB2002BFBD104220549044863
S1131250054B9847E7E7C046C90900200400002071
S1131260340A0020D40900207507000084B000234C
S1131270009388231B040193009A8023DB05134306
S11312800093114B1B78012B0DD0002B03D0022BA4
S113129011D004B07047019B0C4A1A408023DB0232
S11312A013430193F5E7019B084A1A40C023DB026C
S11312B013430193EDE7019B044A1A408023DB02A8
S11312C013430193E5E7C04615000020FFFFF0FF3C
S11312D070B52E4B98472E4B98472E4A1070032812
S11312E02CD9072835D908283CD102222A4B1A7058
S11312F02A4B012119705A7000229A7026E0B047D7
S113130010E00122264B1A70264B1B78002B06D0C6
S1131310254B98470023224A1370224A13702B78D6
S1131320002BECD1A378002BEBD11E4B1B78002BA8
S1131330F5D01B4B1B78002BF1D0E9E70022164BAC
S11313401A70164B01321A705A709A70174B9847DC
S11313500FE00122104B1A70104B002119705970C4
S11313609A7006E003220C4B1A700C4B1B78002B6E
S1131370ECD10F4B984701220E4B1A70BFF35F8FCD
S113138062B6064D0C4E2C00C9E7C046510F000052
S1131390951000001400002015000020F009002022
S11313A0DD090020DC0900206D120000C5100000DA
S11313B061110000000000201D12000070B500261D
S11313C00C4D0D4C641BA410A64209D1002600F05C
S11313D0CBF80A4D0A4C641BA410A64205D170BD7B
S11313E0B300EB5898470136EEE7B300EB58984743
S11313F00136F2E77415000074150000741500003E
S113140078150000F40300005C0600005C06000090
S11314105C0600005C0600005C0600005C06000040
S11314205C0600005C0600005C0600005C06000030
S11314305C0600005C0600005C0600005C06000020
S11314405C060000DC0300005C0600005C06000093
S11314505C0600005C0600005C0600005C06000000
S11314605C0600005C0600005C0600005C060000F0
S11314705C0600005C0600005C0600005C060000E0
S11314805C060000EC0300005C0600005C06000043
S11314905C0600005C0600005C0600005C060000C0
S11314A05C0600005C0600005C0600005C060000B0
S11314B05C0600005C0600005C0600005C060000A0
S11314C05C060000E40300002C040000C4030000D8
S11314D0D4030000CC03000002000000030000005D
S11314E0FFFF0000FFFF00000400000005000000F3
S11314F006000000070000000800000009000000CA
S11315000A0000000B000000FFFF0000FFFF0000C6
S1131510FFFF0000FFFF0000FFFF0000FFFF0000CF
S1131520FFFF0000FFFF0000FFFF0000FFFF0000BF
S11315300800000009000000000002000000040090
S1131540206080002060800003090000206080008B
S113155020608000000600000B0000000B0000006B
S113156021220000191A0000F8B5C046F8BC08BCD6
S11315709E467047E5000000F8B5C046F8BC08BCBC
S10B15809E467047BD00000007
S11315880100000000000000010000000400000049
S10B159805000000FF03FF0041
S9030F816C
